:020000040800F2
:1000000080070020A1010008E1200008F91E000877
:10001000DD200008B5090008F520000800000000F8
:10002000000000000000000000000000E9200008BF
:10003000B909000800000000E5200008ED200008D4
:10004000BB010008BB010008BB010008BB010008A0
:10005000BB010008BB010008BB010008BB01000890
:10006000BB010008BB010008BB010008BB01000880
:10007000BB010008BB010008BB010008BB01000870
:10008000BB010008BB010008BB010008BB01000860
:10009000BB010008BB010008BB010008BB01000850
:1000A000BB010008BB010008BB010008BB01000840
:1000B000BB010008BB010008BB010008BB01000830
:1000C000BB010008BB010008BB010008BB01000820
:1000D000BB010008BB010008BB010008BB01000810
:1000E000BB010008BB010008BB01000800F002F8DA
:1000F00000F046F80AA090E8000C82448344AAF17C
:100100000107DA4501D100F03BF8AFF2090EBAE879
:100110000F0013F0010F18BFFB1A43F0010318473B
:100120007828000098280000103A24BF78C878C1C9
:10013000FAD8520724BF30C830C144BF04680C60ED
:10014000704700000023002400250026103A28BF35
:1001500078C1FBD8520728BF30C148BF0B60704739
:10016000642900F0CF80782900F0088100207047D2
:100170001FB59DE8030000F095FA1FBD10B510BD36
:1001800000F096FB1146FFF7F3FF02F031F900F0A3
:10019000B4FB03B4FFF7F2FF03BC00F0E5FB000083
:1001A0000948804709480047FEE7FEE7FEE7FEE70B
:1001B000FEE7FEE7FEE7FEE7FEE7FEE70448054947
:1001C000054A064B70470000F1200008ED000008CA
:1001D0008001002080070020800300208003002091
:1001E00070B5064600F042FA056806F10B0020F0F3
:1001F0000704B4429CBF002070BD2B466A68BAB1A8
:100200001068A04210D304F1080188423CBF506836
:10021000586007D35168101941601168091B0160CB
:1002200058601460101D70BD13465268002AE7D153
:100230002146284600F022FA0028DED170BD70B5B4
:100240000446051F00F012FA0068002C14BF446831
:1002500070BD002C18BFAC423CBF20466468F8D388
:1002600001680A18AA4218BF456003D12A680546EA
:100270001144016028684119A1421CBF6C6070BD27
:100280006168696021680844286070BD0FB41CB5BE
:10029000074B06AA7B4469460090059800F097FA40
:1002A0000020694600F0A6FA1CBC5DF814FB0000B3
:1002B0005D05000070B5044685690068C10601D57A
:1002C000302600E02026C00707D070BDD4E9012108
:1002D00030469047206A401C20626D1EF6D570BDE6
:1002E00070B5044685690078C00707D170BDD4E9B0
:1002F000012120209047206A401C20626D1EF6D507
:1003000070BD00002DE9F0410646002410687529F3
:10031000314616A510D0AFF30080002802DA404223
:1003200013A507E031688A0701D512A502E0490745
:1003300004D511A5012401E0AFF3008000210A22B9
:1003400006F1240709E0B0FBF2FCB0FBF2F302FB7C
:100350001C00303078541846491C0028F3D123463D
:100360002A463046BDE8F04100F0D2B90000000056
:100370002D0000002B0000002000000070B5044696
:100380000D4621461068AFF300802188090502D58B
:100390000F4A7A4402E00E4A7A440E32002104F1F8
:1003A000240305E000F00F060009965D5E54491C29
:1003B0000028F7D120780023000704D5702D02D043
:1003C00009B1022311322046BDE8704000F0A0B907
:1003D000E62400002DE9F05F894604464FF0000A4C
:1003E000DFF824B1FB44C0F820A02046E16888472C
:1003F00000287DD0252806D0D4E901219047206A25
:10040000401C2062F1E700255F462046E1688847EE
:100410002028064607DB312E05D2B81910F8200C2B
:1004200008B10543F1E7A80701D525F00405C4F894
:100430001CA00027C4F818A02A2E09D0304602F0CC
:1004400016F938B304EB8708303EC8F8186019E095
:1004500059F8041B204604EB87029161E168884744
:10046000012F064618D1E069002820DA25F0200582
:100470001DE0D8F8180000EB800006EB4000303893
:10048000C8F818002046E1688847064602F0EFF8F1
:100490000028EED1012F0AD02E2E08D12046E16887
:1004A00088477F1C0646022F45F02005C4DBA06963
:1004B000002803DA404245F00105A061E80701D0B9
:1004C00025F01005A6B1A6F14100192802D8203662
:1004D00045F400654A463146204625604D46FFF703
:1004E0003FFE60B1012807D0ED1D25F0070000E0B8
:1004F00007E000F1080978E705F1040975E73046DF
:100500007AE7206ABDE8F09FBC24000010B5431CC8
:1005100002E010F8011B71B18107FAD14FF00132EE
:1005200002C88C1A8C4314EAC211F9D0C01A0A0608
:1005300003D0C01E10BDC01A10BD0A0401D0801E19
:1005400010BD0902FCD0401E10BD032A40F23080CD
:1005500010F0030C00F0158011F8013BBCF1020F04
:10056000624498BF11F801CB00F8013B38BF11F885
:10057000013BA2F1040298BF00F801CB38BF00F89C
:10058000013B11F0030300F03A81083AC0F0088003
:1005900051F8043B083A51F804CBA0E80810F5E7FD
:1005A000121D5CBF51F8043B40F8043BAFF30080E0
:1005B000D20724BF11F8013B11F801CB48BF11F855
:1005C000012B24BF00F8013B00F801CB48BF00F825
:1005D000012B70474FF000020429C0F0128010F088
:1005E000030C00F01B80CCF1040CBCF1020F18BF0F
:1005F00000F8012BA8BF20F8022BA1EB0C0100F0A2
:100600000DB85FEAC17C24BF00F8012B00F8012B74
:1006100048BF00F8012B70474FF0000200B51346A9
:1006200094469646203922BFA0E80C50A0E80C5012
:10063000B1F12001BFF4F7AF090728BFA0E80C50C3
:1006400048BF0CC05DF804EB890028BF40F8042BBC
:1006500008BF704748BF20F8022B11F0804F18BF29
:1006600000F8012B7047704770477047004870478B
:1006700018000020704770477047704738B504462F
:100680000A4600206946AFF30080002808BF38BD45
:1006900002460099204600F0E9F8012038BD01200B
:1006A00000F0FEB8F8B5AFF30080054600200C4618
:1006B000102000BF0646A819A0420DD9324669464F
:1006C0000020AFF30080070008BF00F0E9F80098B1
:1006D000A04218BF0546C419FFF7C8FF05600746CA
:1006E000F01D20F007004619284600F00AF8B44231
:1006F00008BFF8BDA21B31463868BDE8F84000F0DD
:10070000B5B800210160C0E90110704710207047A2
:100710002DE9F0470D4699469246044600F124081B
:100720000168880604D5E06921F01001216000E02D
:100730000120A84201DD471B00E00027A1697A19CA
:1007400002EB0900081AA0612078C00602D42046F6
:10075000FFF7B0FD002608E0D4E901211AF80600F1
:100760009047206A401C761C20624E45F4DB2078BE
:10077000C0060AD52046FFF79DFD06E0D4E9012119
:1007800030209047206A401C2062381EA7F10107E4
:10079000F4DC07E0D4E9012118F805009047206A4D
:1007A000401C2062281EA5F10105F3DC2046FFF75E
:1007B00097FD2078000602D50220BDE8F0870120D1
:1007C000FBE7000001694A1C02610878704700B528
:1007D0008FB0CDE901310021059105497944CDE97A
:1007E000031011466846FFF7F5FD0FB000BD00008D
:1007F000E5FFFFFF0A6802F8010B0A60704710B5B9
:10080000203AC0F00B80B1E81850A0E81850B1E8C9
:100810001850A0E81850203ABFF4F5AF5FEA027C08
:1008200024BFB1E81850A0E8185044BF18C918C038
:10083000BDE810405FEA827C24BF51F8043B40F8D9
:10084000043B08BF7047D20728BF31F8023B48BFBE
:1008500011F8012B28BF20F8023B48BF00F8012BFC
:1008600070470000004870471000002003464068B1
:100870008C46002818BF88423CBF03464068F8D326
:1008800018681844884207D00CF1030020F00700D4
:10089000001D411A521A0146081D0A60FFF7CFBC1D
:1008A00010B500F039F8BDE8104000F02FB87047DF
:1008B0007546FFF7D7FFAE4605006946534620F060
:1008C0000700854618B020B5FFF778FCBDE820404A
:1008D0004FF000064FF000074FF000084FF0000BFC
:1008E000AC46ACE8C009ACE8C009ACE8C009ACE86B
:1008F000C00921F007018D46704710B50446AFF3DB
:1009000000802046BDE81040FFF743BC002801D01E
:1009100000F02AB87047000010B5012805D000216A
:1009200003A000F027F8012010BD09A1F8E700009E
:1009300053494752544D454D3A204F7574206F66C8
:100940002068656170206D656D6F72790000000030
:100950003A2048656170206D656D6F727920636F14
:10096000727275707465640001491820ABBEFEE7B1
:100970002600020070B505460C460A2000E06D1CFA
:1009800000F011F835B128780028F8D102E0641C95
:1009900000F009F814B120780028F8D1BDE87040C3
:1009A0000A20AFF3008008B569468DF800000320E7
:1009B000ABBE08BDFEE7000070470000EFF31080FB
:1009C00072B600BFFEE70000B0B5044600F02CF997
:1009D000054640F20000C2F200000078611C18BF1A
:1009E000044400BF00F020F9401BA042FAD3B0BD80
:1009F0002DE9F04F82B00E68002E00F0038141F225
:100A00000042C4F20102042340F2004E904208BFAB
:100A100003234FF6FF7CC4F2010E00930024012350
:100A2000C1F2100C4FF0000A4FF0000949E000BF7E
:100A3000012704F00C030F229A402BEA020207FA66
:100A400003F34FEA9A051A4346F82520D1F804B07B
:100A500040F20C455FEACB22DEF8082054BF22EAC0
:100A6000080242EA0802C4F20105CEF808202A680A
:100A70005FEA8B2354BF22EA080242EA08022A6096
:100A80005FEA8B33DEF8042054BF22EA080242EA10
:100A900008025FEACB33CEF80420DEF800204FF0E6
:100AA000010354BF22EA080242EA0802CEF80020FD
:100AB0000E680AF1010A36FA0AF204F1040400F0A1
:100AC000A18003FA0AF816EA080FF1D04E686645CD
:100AD00012DC122E56D8DFE806F0350B4549555585
:100AE00055555555555555555555554D510000BF02
:100AF000D1F80C9046E000BF4FF6FF72C1F2210220
:100B000096420FDC0022C1F2110296421AD0002256
:100B1000C1F21202964215D00022C1F22102964281
:100B200010D02FE00022C1F2220296420AD0002209
:100B3000C1F23102964205D00022C1F23202964241
:100B400020D100BF8A684AB1012A14BFC0F81480BE
:100B5000C0F810804FF0080914E000BF4FF00409FE
:100B600010E000BFCA6802F108090BE04FF000096D
:100B700008E000BFCA6802F1040903E0CA6802F194
:100B80000C0900BF22460646BAF1080F24BF203ADE
:100B9000043637680F25954027EA050509FA02F261
:100BA0002A433260CA79D2067FF582AF41F2180338
:100BB000C4F202031A68AEF57E7642F001021A60B2
:100BC0001A6802F001020192019A2AF0030256F813
:100BD00002B040F60002C4F20102904210D040F68A
:100BE0000042C4F2010290423FF422AF41F20002FF
:100BF000C4F20102009F904208BF022719E700BF1C
:100C0000002716E702B0BDE8F08F0000C26802EAD4
:100C10000103914341EA034101617047002A08BF83
:100C2000090401617047000040F27810C2F2000030
:100C30000068704740F2000040F27811C2F20000F4
:100C4000C2F2000100780A68104408607047000092
:100C500080B542F20000C4F20200016841F01001C8
:100C60000160032000F072F80F2000F005F800F09A
:100C700027F8002080BD000070B540F20006C2F2E7
:100C8000000640F208013278C2F200014FF47A7394
:100C90000968B3FBF2F20446B1FBF2F1084600F03A
:100CA00047FB0F2C4FF0010508D838B94FF0FF3043
:100CB00021460022002500F01DF87460284670BD12
:100CC00082B041F21800C4F20200016841F0010153
:100CD0000160016801F0010101910199416841F051
:100CE00080514160406800F080500090009802B050
:100CF0007047000010B54EF60C5CCEF2000CDCF82C
:100D00000030C3F3022E8EF00704042C28BF042405
:100D1000BEF103034FF0FF3E0EFA04F438BF002388
:100D2000A14399400EFA03F39A43114300F00F02D6
:100D300000F160430901043A03F56443624400286A
:100D400048BF02F10C03197010BD00004EF60C51A3
:100D5000CEF200010A684FF6FF031A4060F30A2240
:100D600042F0806040F0FD70086070472DE9F0436C
:100D700081B0002800F0858042F20008C4F2020829
:100D80000446D8F800000D4600F0070088420CD257
:100D9000D8F8000020F007002843C8F80000D8F871
:100DA000000000F00700A8426BD1206841F204095E
:100DB0008107C4F2020917D5410705D5D9F80010FB
:100DC00041F4E061C9F80010010705D5D9F8001019
:100DD00041F46051C9F80010D9F80010A26821F060
:100DE000F0011143C9F80010C00741D1D8F8000044
:100DF00000F00700A8420CD9D8F8000020F0070046
:100E00002843C8F80000D8F8000000F00700A84206
:100E100037D12068410707D5D9F80010E26821F4DE
:100E2000E0611143C9F80010000708D5D9F80000A7
:100E3000216920F4605040EAC100C9F80000D9F8E7
:100E4000002002F00C00082841F20020C0F27A00D5
:100E500050D142F6EE03C2F38341C0F60003595C61
:100E6000D2033BD440F60010C0F23D00484341E0BD
:100E7000606802280AD001282AD159F8041C890385
:100E800008D4012001B0BDE8F08300BF59F8041C6C
:100E90008901F6D5D9F8001021F003010843C9F8FB
:100EA0000000FFF7C1FE064641F28837D9F800007E
:100EB000616800F00C00B0EB810F97D0FFF7B4FE33
:100EC000801BB842F2D9032001B0BDE8F08300BF17
:100ED00059F8041C8907D4D5DCE700BFD9F80020F5
:100EE00042F6EC03C2F34042C0F600039A5C48436A
:100EF000B0FBF2F0D9F8001042F6D402C1F30311AE
:100F0000C0F60002515C40F2080220FA01F140F202
:100F10000400C2F200000068C2F200021160FFF794
:100F2000ABFE002001B0BDE8F083000040F20800F5
:100F300041F20401C2F20000C4F202010068096833
:100F400042F6E402C1F30221C0F60002515CC8403F
:100F50007047000040F2080041F20401C2F20000B4
:100F6000C4F202010068096842F6E402C1F3C2213A
:100F7000C0F60002515CC840704700002DE9F04106
:100F800082B0002868D00446007841F20006C0070D
:100F9000C4F2020625D0706800F00C0004281BD0B3
:100FA000706800F00C00082802D17068C00313D4E8
:100FB0006068002800F06881B0F5A02F00F07C8107
:100FC000B0F5803F00F07C81306820F480303060E4
:100FD000306820F4802076E13068800301D56068B5
:100FE000D0B32078800718D5706810F00C0F07D0A8
:100FF000706800F00C0008286ED17068C0036BD4D4
:101000003068800702D52069012825D130686169E0
:1010100020F0F80040EAC1003060207800071FD4BB
:101020002078400732D4E56995B1706800F00C0073
:10103000082840F08F80012D0ED07068216A00F4DE
:1010400080328A4208D1616A00F47010884203D16C
:10105000002002B0BDE8F081012002B0BDE8F081BF
:10106000A069002862D00020C4F242200121C0F80B
:101070008014FFF7D9FD0546706A800700F18C8067
:10108000FFF7D2FD401B0228F6D92AE1F06910F0E3
:10109000805808D1F06940F08050F061F06900F0AC
:1010A00080500090009847F20007C4F200073868AB
:1010B000C00529D4386840F480703860FFF7B4FD6B
:1010C000054600BF3868C0051ED4FFF7ADFD401BC4
:1010D0006428F7D905E100BF2069002840F200002C
:1010E000C4F2422000F0828001210160FFF79CFDE4
:1010F000054600BF306880073FF588AFFFF794FDD5
:10110000401B0228F6D9ECE0E068002800F080805F
:10111000052800F09780012800F09880306A20F0C0
:1011200001003062306A20F0040092E00020C4F236
:1011300042200021C0F88014FFF776FD054600BF6D
:10114000706A80077FF56CAFFFF76EFD401B0228C9
:10115000F6D9C6E00027C4F2422700203866FFF720
:1011600063FD022D05460BD13068800140F1BE8041
:10117000FFF75AFD401B02284FF00300F4D968E73F
:10118000306880017FF564AFFFF74EFD401B0228F9
:101190004FF00300F4D95CE740F20800C2F200000F
:1011A000006844F6D351C1F26201A0FB0101480A74
:1011B000019000BF00BF0198411E002801913FF43B
:1011C0002FAF00BF0198411E002801913FF428AFC6
:1011D00000BF0198411E002801913FF421AF00BFDC
:1011E0000198411E00280191E4D119E70021016016
:1011F000FFF71AFD054600BF306880077FF50DAF89
:10120000FFF712FD401B02284FF00300F4D920E73E
:10121000306A20F001003062306A20F00400306251
:10122000FFF702FD054641F2883700BF306A8007AC
:1012300020D5FFF7F9FC401BB8424FF00300F5D969
:1012400007E700BF306A40F004003062306A40F0C7
:1012500001003062FFF7E8FC054641F2883700BF25
:10126000306A800706D4FFF7DFFC401BB842F7D98D
:1012700037E000BFB8F1000F7FF4D5AEF06920F081
:101280008050F061CFE600BF306820F480303060DD
:10129000306820F480203060FFF7C6FC054600BFB0
:1012A000306880037FF59DAEFFF7BEFC401B6428CD
:1012B0004FF00300F4D9CCE6306840F48020306071
:1012C000306840F480303060FFF7AEFC054600BF68
:1012D000306880033FF585AEFFF7A6FC401B64280D
:1012E000F6D9032002B0BDE8F08100BF206AB0F556
:1012F000803F05D17168A26821F40031114371600B
:101300007168626A21F4741111430843706001200E
:101310003866FFF789FC0446306880013FF598AED7
:10132000FFF782FC001B02284FF00300F4D990E67F
:10133000411E0020B0EB116F1CBF012070474EF220
:101340001002CEF2000251604EF62351CEF200019F
:10135000F0230B70072190601160704710B590F872
:101360003C20012A4FF0020233D080F83D20026871
:10137000D2F804E0D2F808C00C682EF070032343C2
:1013800040F2FF74C4F20004A24253600ADCB2F1DE
:10139000804F13D040F20043C4F200039A420DD0B4
:1013A00011E000BF42F60043C4F201039A4205D0A7
:1013B00040F60003C4F200039A4204D149682CF0BD
:1013C0008003194391600121002280F83D1080F8CC
:1013D0003C20104610BD0000002804BF01207047CB
:1013E00010B5044690F83D0028B9002084F83C0070
:1013F000204600F067F8022084F83D00206840F2A3
:10140000FF730268C4F2000342F6004C9842C4F233
:10141000010C15DCB0F1804F1AD040F20041C4F24B
:101420000001884214D0984218DCB0F1804F1DD0E2
:1014300040F20041C4F20001884217D01AE000BF18
:10144000604505D040F60001C4F200018842EAD1AF
:10145000A16822F070020A439842E6DD604505D09B
:1014600040F60001C4F20001884203D1216922F450
:1014700040720A43A36922F08001D4F804E0E268D4
:10148000194360450160C262C0F828E002D1616979
:10149000CCF8301001214161002084F8461084F816
:1014A0003E1084F83F1084F8401084F8411084F80E
:1014B000421084F8431084F8441084F8451084F8EE
:1014C0003D1010BD81B00068B0F1804F02D001B076
:1014D000704700BF41F21C00C4F20200016841F0F5
:1014E00001010160006800F001000090009801B067
:1014F0007047000080B590F83C20012A4FF00202AE
:1015000000F0C28080F83D20D0F800C04FF677721E
:10151000DCF8083023EA0202CCF808200B684F2BD5
:1015200028DC1F2B44DD202B45D0302B43D0402B13
:1015300040F0AC80D1F804E0C968DCF82030DCF879
:10154000202022F00102CCF82020DCF8182022F024
:10155000F00242EA011123F00A0242EA0E02CCF83C
:101560001810CCF82020DCF8081041F0470121F0D9
:10157000300180E06F2B27DDB3F5005F48D0B3F575
:10158000805F7AD0702B40F08180D1E901E3C96897
:10159000DCF8082043EA0E0322F47F4243EA0121EB
:1015A0001143CCF80810DCF8081041F0770162E034
:1015B0000BB1102B6AD1DCF8081021F0700119432F
:1015C00041F0070157E000BF502B35D0602B5DD1B3
:1015D000D1F804E0C968DCF82030DCF8202022F0E3
:1015E0001002CCF82020DCF8182022F4704242EAE5
:1015F000013123F0A00242EA0E12CCF81810CCF808
:101600002020DCF8081041F0670121F0100132E0E1
:10161000D1E901E3C968DCF8082043EA0E0322F4AB
:101620007F4243EA01211143CCF80810DCF808108E
:1016300041F480411FE000BFD1F804E0C968DCF844
:101640002030DCF8202022F00102CCF82020DCF849
:10165000182022F0F00242EA011123F00A0242EAC5
:101660000E02CCF81810CCF82020DCF8081041F05D
:10167000570121F02001CCF808100022012180F848
:101680003D10002180F83C10104680BD0122F5E796
:101690002DE9F04390F83C30012B04BF0220BDE857
:1016A000F0834FEAB202032A3CD8DFE802F003439A
:1016B00081BD00BF036842F600461D6A1A6AC4F283
:1016C000010622F001021A621A465C6852F818CF2D
:1016D000B3428E68D1F800E025F0020545EA060520
:1016E0000CD1CE68D1E9057824F4407425F00C05BE
:1016F00026F004063C43354344EA08042CF0730703
:1017000047EA0E075C609F614F6809695F631D626D
:101710009F6947F008079F619F6927F004079F6151
:10172000B2E000BF0121002280F83C200846BDE85D
:10173000F08300BF036842F600461D6A1A6AC4F2CD
:10174000010622F010021A621A46D3F804C052F8B9
:10175000184FB3428E68D1F800E025F0200545EA25
:10176000061510D1CE68D1E9058725F0C0096FF0C4
:10177000400505EA06152CF4406647EA080745EAE5
:10178000090546EA870C24F4E64444EA0E27C3F828
:1017900004C09F614F6809699F631D629F6947F498
:1017A00000679F619F6927F480679F616BE000BFBE
:1017B000036842F600461D6A1A6AC4F2010622F462
:1017C00080721A621A46D3F804C052F81CEFB34272
:1017D0008E680C6825F4007545EA062511D1CE689F
:1017E000D1E9058725F44069360240F2FF4526EA33
:1017F00005052CF4405647EA080745EA090546EA7C
:10180000071C2EF073072743C3F804C0DF614F683D
:101810000969DF631D62DF6947F00807DF61DF697F
:1018200027F00407DF612FE0036842F60047D3F892
:1018300020C01A6AC4F2010722F480521A621A46C2
:101840005C6852F81C5FD1F800E08E68BB4204D19E
:101850004F6924F4804444EA87142CF4005747EA83
:10186000063725F4E64646EA0E265C60DE614E68E1
:1018700009691E641F62DF6947F40067DF61DF6981
:1018800027F48067DF6109021368194311600021A2
:10189000002280F83C200846BDE8F083002804BF01
:1018A0000120704710B5044690F83D0028B900208B
:1018B00084F83C00204600F067F8022084F83D00E0
:1018C000206840F2FF730268C4F2000342F6004C45
:1018D0009842C4F2010C15DCB0F1804F1AD040F2EE
:1018E0000041C4F20001884214D0984218DCB0F1E3
:1018F000804F1DD040F20041C4F20001884217D051
:101900001AE000BF604505D040F60001C4F20001B6
:101910008842EAD1A16822F070020A439842E6DDCB
:10192000604505D040F60001C4F20001884203D1B1
:10193000216922F440720A43A36922F08001D4F89D
:1019400004E0E268194360450160C262C0F828E023
:1019500002D16169CCF8301001214161002084F886
:10196000461084F83E1084F83F1084F8401084F844
:10197000411084F8421084F8431084F8441084F82D
:10198000451084F83D1010BD7047000041B1082992
:1019900010D0042914BF00F1410200F13F020BE016
:1019A00090F83E20012A1CBF01207047022280F8D7
:1019B0003E2013E000F140021278012A1CBF0120F2
:1019C00070470222082907D0042914BF80F841205B
:1019D00080F83F2002E000BF80F84020006801F05E
:1019E0001F010122036A8A4023EA02010162036A9D
:1019F00042F64441C4F201011A43A1F14403984262
:101A000002620FD040F2FF71C4F20001884213DC81
:101A1000B0F1804F1CD040F20041C4F20001884276
:101A200016D01CE00A6842F400420A6040F2FF71DE
:101A3000C4F200018842EBDD42F60041C4F201012C
:101A4000884205D040F60001C4F20001884206D168
:101A5000816801F00701062904BF00207047016872
:101A600041F00101016000207047000080B502686C
:101A700001F01F0C012303FA0CFE136A42F6444CDA
:101A800023EA0E03C4F2010C1362D2F820E0ACF199
:101A900044039A42C2F820E013D15CF824EC41F2EE
:101AA00011131EEA030F0CD1D2F820E040F2444398
:101AB0001EEA030F05D1DCF8003023F40043CCF814
:101AC0000030D2F820C041F211131CEA030F06D1F6
:101AD000D2F820C040F244431CEA030F14D0082976
:101AE00018D004290AD000294FF0010114BF80F852
:101AF000411080F83E10002080BD00BF012180F819
:101B00003F10002080BD00BF136823F00103136065
:101B10000829E6D1012180F84010002080BD000096
:101B2000002804BF0120704710B5044690F841001A
:101B300028B9002084F84000204600F063F82420F3
:101B400084F841002068D4E90212C36823F40053EA
:101B5000C360036923F440531A430261D4E90423A8
:101B60001143C268194341F20C639A431143C160A7
:101B70004169A26921F44071114343F60002C4F2A5
:101B800001029042416103D0FFF7D0F902E000BFAB
:101B9000FFF7E0F96268192148439100B0FBF1F0CA
:101BA00048F21F51C5F2EB11A0FB01235A094FF671
:101BB0009C73C0F6FF7302FB0300322303EB00109B
:101BC000A0FB0101F02303EA5113206803EB02128A
:101BD000C1F3431111448160016921F49041016115
:101BE000416921F02A014161C16841F40051C1609D
:101BF00000202021606484F8411084F84210606362
:101C000010BD000070B586B040F60004C4F20104B7
:101C1000006804F5405100268842049602D006B0C0
:101C200070BD00BF41F21800C4F20200016802ADAD
:101C300041F480410160016801F480410191019902
:101C4000016841F0040101600068294600F00400C9
:101C5000019001984FF4007002900220039003203D
:101C600005902046FEF7C4FE4FF48060CDE90206E1
:101C7000204629460496FEF7BBFE06B070BD000064
:101C80002DE9F04381B0044690F84100202840F04F
:101C9000B180884600294FF0010000F0D68016463A
:101CA000002A00F0D2800020606421201D4684F8C4
:101CB0004100FEF7B9FFA684E684A1680646B1F5A7
:101CC000805F03D12069002800F0988047464FF0DC
:101CD0000008E18C2068002900F0968005F10109D8
:101CE0000BE000BF47B317F8011B4160E18C0139DD
:101CF000E184E18C002900F0878001680906F1D4B5
:101D0000B9F1000F0AD0EDB1FEF78EFF801BA8429B
:101D100018D8206801680906F6D5E3E701680906C6
:101D2000E0D4016809065CBF01685FEA0161D9D4AB
:101D300001680906F2D5D5E738F8021B00276FF3D2
:101D40005F21D2E7206850E8030F216820F4D070AB
:101D500041E80302BAB3206850E8030F216820F479
:101D6000D07041E8030272B3206850E8030F216885
:101D700020F4D07041E803022AB3206850E8030F32
:101D8000216820F4D07041E80302002ADAD11AE079
:101D9000206850E8050F216820F0010041E80502A5
:101DA000DAB1206850E8050F216820F0010041E811
:101DB000050292B1206850E8050F216820F001006B
:101DC00041E805024AB1206850E8050F216820F07B
:101DD000010041E80502002ADAD1202084F8410000
:101DE00084F84200002084F84000032001B0BDE8E0
:101DF000F08300BF022001B0BDE8F0830027E18C32
:101E0000206800297FF46AAF0168490619D4FDB142
:101E1000691C0DD10168490613D4016849065CBFED
:101E200001685FEA41610CD401684906F2D508E017
:101E3000FEF7FAFE801BA8420AD820680068400618
:101E4000F6D5202084F84100002001B0BDE8F083E1
:101E5000206850E8030F216820F4D07041E80302A5
:101E6000002A3ED0206850E8030F216820F4D0708B
:101E700041E80302AAB3206850E8030F216820F468
:101E8000D07041E8030262B3206850E8030F216874
:101E900020F4D07041E80302002AD9D121E000BF2C
:101EA000206850E8050F216820F0010041E8050294
:101EB000002A3FF492AF206850E8050F216820F017
:101EC000010041E80502002A3FF487AF206850E88E
:101ED000050F216820F0010041E80502002A3FF4C7
:101EE0007CAF206850E8050F216820F0010041E830
:101EF0000502002AD4D170E7FEE7000070B584B077
:101F000041F21800C4F20200016841F2000441F0FD
:101F1000100101600168C4F2010401F01001009198
:101F200000990168012241F02001016001684FF42D
:101F3000005501F02001009100990168012641F04F
:101F400008010160016801F0080100910099016831
:101F500041F00401016000684FF4005100F00400FA
:101F6000009000982046FEF759FE002002900220C3
:101F7000039069462046CDE90056FEF739FD04B0CE
:101F800070BD000010B594B040F2AC000021C2F268
:101F900000004FF0804208234FF6FF740E91CDE908
:101FA0000C110991CDE90711CDE90511CDE9031116
:101FB000CDE90111C0E90023C0E90214016181618A
:101FC000FFF70AFA002818BFFEF7F8FC4FF480501C
:101FD0000B9040F2AC00C2F200000BA9FFF78AFAA6
:101FE000002818BFFEF7EAFC40F2AC00C2F2000085
:101FF000FFF754FC002818BFFEF7E0FC40F2AC00ED
:102000000024C2F2000008A9CDE90844FFF7A6F9B0
:10201000002818BFFEF7D2FC6020CDE9010403942C
:10202000059440F2AC04C2F2000401A920460C223F
:10203000FFF72EFB002818BFFEF7C0FC2068002128
:10204000B0F1804F129101D014B010BD41F21800D0
:10205000C4F20200016841F008010160006810A9A3
:1020600000F008000F900F984FF4006010900220CD
:102070001190139040F60040C4F20100FEF7B8FC46
:102080000420C4F2010001684FF6FF42CFF6FF02C0
:10209000114041F0E06141F40071016014B010BDE5
:1020A00080B540F2F40043F60001C2F20000C4F231
:1020B000010100234FF00C0C4FF4E13280E80E00D8
:1020C000C0E90333C0E905C3C361FFF729FD002858
:1020D00008BF80BDBDE88040FEF770BCFEE7000091
:1020E000FEE700007047000070470000FEF7A2BD49
:1020F00070470000FEE700002DE9F04F81B018B1F5
:10210000D0F818B0814609E040F27009C2F2000927
:10211000D9F818B0BBF1000F00F02A81D9E9088086
:1021200099F815A099F81C50002818BFFEF787F8F9
:10213000D9F82800002818BFFEF781F8022D40F0DA
:1021400017815FEA480009D00138032808D200202F
:1021500000255FEAC87130D13DE000BF00253AE0BC
:102160006FF0020000EA480040420BF10101002537
:102170006FF003028B18DF781C795E7907F0F8079F
:102180009B79302F04F0F80708BF0135302F06F097
:10219000F80708BF0135302F03F0F80302F10402FD
:1021A00008BF0135302B00EB020308BF01350433B3
:1021B000E0D1101D5FEAC8710DD01BF80010584423
:1021C000407801F0F801302908BF013500F0F8002F
:1021D000302808BF01354FEA45084046FEF700F8B1
:1021E0000746C9F824002846FDF7FAFF002FC9F872
:1021F000280000F0BD800646002800F0B98038466F
:102200004146FEF7E7F930462946FEF7E3F9002D8F
:1022100000F0A88042F64E1E4FF000080FF2581C46
:10222000C0F6000E00260DE00E443EF81700D9E976
:10223000091221F8180002F8083008F10108A84531
:1022400000F094801BF806107C2901D0202902D1CF
:1022500001361BF8061060290CD02C2914D1013648
:102260006FF00B071BF8060000F0F801302912D0C0
:1022700018E000BF01360C271BF8060000F0F8013B
:10228000302908D00EE000BF00271BF8060000F040
:10229000F801302906D1302866D0604410F8300C9F
:1022A0000136074453460BEB06020021545C232CF5
:1022B0000DD150184478232C12D18478232C1BD1B3
:1022C000C478232C24D10431545C232CF1D00F4446
:1022D0002D2C2BD02E2C2BD05F2CA5D1314421E0DE
:1022E0007818471C70182D2C24D02E2C24D05F2C4D
:1022F00032D1411C16E000BF7818871C70182D2CB5
:102300001CD02E2C1CD05F2C28D1811C0AE000BFD1
:102310007818C71C70182D2C14D02E2C16D05F2CBA
:102320001ED1C11CD8B243084E1CBCE731440AE0A0
:1023300031440CE0411C06E0411C08E0811C02E035
:10234000811C04E0C11C04334E1CACE7C11CD8B294
:1023500003EB50034E1CA6E7461C66E7861C64E7A9
:10236000C61C62E7002501E008F10105C9F82C5000
:1023700001B0BDE8F08F00BF0C0C0E101113151743
:1023800010B538B10446406A002818BFFDF757FF62
:1023900008E000BF40F27004C2F20004606A48B175
:1023A000FDF74DFFA06A002818BFFDF748FF204643
:1023B00010BD00BF002010BD80B582B010B1D0F8B4
:1023C00024C008E040F27000C2F20000D0F824C03F
:1023D000BCF1000F09D0D0E90A1390F815E0027F94
:1023E0006046CDF800E000F0DDF802B080BD0000EE
:1023F00096B0FEF72DFC00240120CDE90744CDE97D
:102400000544029006904FF4E0104FF4803102250D
:102410000B9002A8CDE90314CDE90951FEF7AEFDFA
:1024200020B1EFF3108072B6FEE700BF0F20CDE9B8
:1024300011054FF48060CDE9140411A80221139412
:10244000FEF794FC20B1EFF3108072B6FEE700BFF8
:10245000FFF754FDFFF796FDFFF722FE40F23C1414
:102460000220C2F2000442F6FE032727009023A1B7
:10247000C0F6000320460422019700F04DF8616B7E
:102480002046884702A83C21FEF7C6F8E06A08B358
:1024900040F2F409002502AE0FF26808C2F200090A
:1024A00030463C21FEF7B8F8D4E909012A4630F855
:1024B00015304F5D304641460097FDF7E7FE484630
:1024C00031460F224FF6FF73FFF7DAFBE06A013562
:1024D0008542E5D3216B20468847A16B204688477B
:1024E00041F20004C4F2010420464FF40051FEF70B
:1024F0008DFB4FF4FA70FEF767FAF5E7706C6179BF
:10250000657200005B25645D093058253034580938
:1025100025640D0A000000002DE9F04381B040F26F
:1025200070041EA7C2F20004002818BF0F4618BF8F
:10253000044638461D461646FDF7E8FF142801D923
:10254000142201E0024618B3DDE908982046394616
:102550006675FDF7FAFF42F2B9310020C0F60001BE
:1025600042F2F90242F2813304F1300CA56184F8A1
:102570001C902075C0F60002C0F60003C4E9088074
:10258000C4E90A008CE80E0001B0BDE8F08300BF8A
:102590004FF0FF3001B0BDE8F08300BF64656661B5
:1025A000756C74002DE9F04F8FB0022A5CD11C4687
:1025B000002B59D0A0F1020842F6B800C0F6000086
:1025C0004D1E0168189A059141684FF47A73049181
:1025D0008168B3FBF2F30391C1684CF6CD425A43D4
:1025E00002910169D0E905B940F2AC06D20CC2F201
:1025F0000006079306920191059838F8027F08902B
:10260000049815F801AF09900398CDF838900A9016
:102610000298F7600B900198CDE90C0B3046FEF75D
:10262000DBFE384600F04AF848F63961C3F66361CC
:1026300000F058F800F022F80990304608A90C2262
:10264000FFF726F830460C21FFF7A0F907980AFBA0
:1026500000F0FEF7B9F930460C21FFF707FA0698AB
:10266000FEF7B2F9013CC7D10FB0BDE8F08F3038AA
:102670000A2801D20120704700207047C10DD1F116
:102680009E0206DB4FEA002343F0004323FA02F0E8
:102690007047004207D54FEA4001B1F1FE4F02D228
:1026A0004FF00000704710B500F09DF8499224806B
:1026B000002070476FEA200070470000B0FA80F3F6
:1026C00010FA03F2C3F19D030AD0D90501EB1220E1
:1026D000530638BF704700F1010008BF20F0010029
:1026E000704700004FF47F0C1CEAD0121EBF1CEA9A
:1026F000D11392EA0C0F93EA0C0F00F0478090EA96
:10270000010F48BF42F480724FF0004C4CEA0020A9
:102710004CEA012102EB0302A0FB0113A2F5000227
:10272000002918BF43F001035B0028BF4FEA3303C1
:1027300042EB22425FEA132C4CEBC2502EBFBCEBA3
:10274000436FB2F57C0F70474FEA036CBCF1004F4A
:1027500008BF20F00100B2F57C0F38BF70470BD5E1
:1027600082F0FF0212F5803FC8BF704700F1C04001
:10277000D8BF00F00040704700F5000C5FEA4C0C39
:1027800048BF7047B0F1C04000F073B80CEAD113F5
:1027900090EA010F48BF42F48072624538BF63453A
:1027A00004D280EA010000F00040704710B500F04C
:1027B0001AF800BF8900013E00F007B800F009B820
:1027C0005FEA410C5FEA1C6C08D080EA010000F06F
:1027D00050B85FEA400C5FEA1C6CF6D14FF0004045
:1027E000A0F5800070470EF1020E2EF0030E5EF889
:1027F000044B244204D44FEA4102B2F17F4F11D876
:102800004FEA4003B3F17F4F0CD80ED14FEAD07C92
:102810000CEB4C0C0CF1020CB2F17F4F08BF4CEBEF
:10282000D17C04E04FF0080C01E04FEAD17C0CEBC6
:102830004C0324FA03F404F00704B4F1040C06D2A8
:102840000EEB840CBDE810404CF0010C6047DFE853
:102850000CF0070802024FF00040A0F5800010BD08
:102860000846420018BFD2F1807288BF00F00040D5
:1028700010BDFF2141EAD050C005704730313233DE
:1028800034353637383941424344454640305800A4
:1028900030313233343536373839616263646566D6
:1028A0004030780004000008000000000000000232
:1028B00000010000100000006000000000000000A7
:1028C0000000000000000000000000000000000008
:1028D00000000000000000000000000001020304EE
:1028E00006070809000000000102030401020203B8
:1028F0000405060708090A0B0C0D0E0F10103131E4
:102900007C35357C36367C352D7C34347C33335FF6
:10291000335F7C32327C312D7C35357C34347C33F2
:10292000337C322D7C35357C34347C33337C322D12
:102930007C31317C35357C36367C352D7C34347CAD
:1029400033335F335F7C32327C312D7C000046773D
:102950008631592FCF274B26282582233022E71D89
:10296000B81CC01BA91AC317E9161516E7133B13A9
:102970008312D6103E10E60E5C0E460DCE0C80077C
:102980002A07FE06AE0664063B06F405B305740589
:1029900038050105CB040000B8290008000000201C
:1029A0001000000028010008C829000810000020BD
:1029B0007007000044010008010000001000000042
:0829C0000024F40000000000F7
:04000005080000ED02
:00000001FF
